:1000000075B0FFD2A3C280743811A0748011A0749F
:100010000C11A0740111A0C2A5C2A6C2A711821121
:1000200029E49311ADA370F9229000CC1121D2A53F
:10003000C2A6C2A7114F11BA117D113C9000D81170
:1000400021C2A5C2A6C2A7114F11BA117D11291153
:100050008275F002A475F00A84F8AAF0FF1178EF17
:10006000243011ADE5F0243011AD117322D280118E
:10007000BA80FA748011A02274C011A022740111F8
:10008000A02211BAD2A211BAC2A211BAD2A111BA37
:10009000C2A111BA20A3FDD2A411BAE5B0C2A42214
:1000A000F590C287D2A011BAC2A011BA22F590D29F
:1000B00087D2A011C3C2A011C32278FF79FFD9FE55
:1000C000D8FA2278037903D9FED8FA2254454D5044
:1000D000455241545552450048554D49444954599B
:0100E000001F
:00000001FF
